{"contracts/Mercury.sol":{"Mercury":{"abi":[{"inputs":[{"internalType":"address","name":"usdAddress","type":"address"}],"stateMutability":"nonpayable","type":"constructor"},{"anonymous":false,"inputs":[{"indexed":true,"internalType":"uint256","name":"id","type":"uint256"},{"indexed":true,"internalType":"address","name":"borrower","type":"address"}],"name":"Accepted","type":"event"},{"anonymous":false,"inputs":[{"indexed":true,"internalType":"uint256","name":"id","type":"uint256"},{"indexed":true,"internalType":"address","name":"lender","type":"address"},{"indexed":false,"internalType":"uint256","name":"amount","type":"uint256"},{"indexed":false,"internalType":"uint256","name":"interest","type":"uint256"},{"indexed":false,"internalType":"uint256","name":"duration","type":"uint256"}],"name":"Posted","type":"event"},{"anonymous":false,"inputs":[{"indexed":true,"internalType":"uint256","name":"id","type":"uint256"}],"name":"Repaid","type":"event"},{"inputs":[],"name":"USD","outputs":[{"internalType":"contract IERC20","name":"","type":"address"}],"stateMutability":"view","type":"function"},{"inputs":[{"internalType":"uint256","name":"_id","type":"uint256"}],"name":"acceptLoan","outputs":[],"stateMutability":"nonpayable","type":"function"},{"inputs":[{"internalType":"uint256","name":"_id","type":"uint256"}],"name":"liquidate","outputs":[],"stateMutability":"nonpayable","type":"function"},{"inputs":[{"internalType":"uint256","name":"","type":"uint256"}],"name":"loans","outputs":[{"internalType":"address","name":"lender","type":"address"},{"internalType":"address","name":"borrower","type":"address"},{"internalType":"uint256","name":"amount","type":"uint256"},{"internalType":"uint256","name":"interest","type":"uint256"},{"internalType":"uint256","name":"duration","type":"uint256"},{"internalType":"uint256","name":"dueDate","type":"uint256"},{"internalType":"bool","name":"repaid","type":"bool"}],"stateMutability":"view","type":"function"},{"inputs":[],"name":"nextLoanId","outputs":[{"internalType":"uint256","name":"","type":"uint256"}],"stateMutability":"view","type":"function"},{"inputs":[],"name":"openLoans","outputs":[{"internalType":"uint256[]","name":"ids","type":"uint256[]"}],"stateMutability":"view","type":"function"},{"inputs":[{"internalType":"uint256","name":"_amount","type":"uint256"},{"internalType":"uint256","name":"_interest","type":"uint256"},{"internalType":"uint256","name":"_duration","type":"uint256"}],"name":"postLoan","outputs":[],"stateMutability":"nonpayable","type":"function"},{"inputs":[{"internalType":"uint256","name":"_id","type":"uint256"}],"name":"repay","outputs":[],"stateMutability":"nonpayable","type":"function"}],"evm":{"bytecode":{"linkReferences":{},"object":"60a060405260016000553480156200001657600080fd5b50604051620016ad380380620016ad83398181016040528101906200003c9190620000e1565b8073ffffffffffffffffffffffffffffffffffffffff1660808173ffffffffffffffffffffffffffffffffffffffff16815250505062000113565b600080fd5b600073ffffffffffffffffffffffffffffffffffffffff82169050919050565b6000620000a9826200007c565b9050919050565b620000bb816200009c565b8114620000c757600080fd5b50565b600081519050620000db81620000b0565b92915050565b600060208284031215620000fa57620000f962000077565b5b60006200010a84828501620000ca565b91505092915050565b60805161155b620001526000396000818161018f015281816102e201528181610383015281816105f4015281816106bf0152610bdb015261155b6000f3fe608060405234801561001057600080fd5b50600436106100885760003560e01c80637dd17eff1161005b5780637dd17eff146100ff57806387c514591461011d578063adfbe22f1461013b578063e1ec3c681461015757610088565b80631bf6c21b1461008d578063371fd8e6146100ab578063415f1240146100c75780636ac00e43146100e3575b600080fd5b61009561018d565b6040516100a29190610dd2565b60405180910390f35b6100c560048036038101906100c09190610e28565b6101b1565b005b6100e160048036038101906100dc9190610e28565b610493565b005b6100fd60048036038101906100f89190610e55565b6106bd565b005b610107610920565b6040516101149190610f66565b60405180910390f35b610125610ace565b6040516101329190610f97565b60405180910390f35b61015560048036038101906101509190610e28565b610ad4565b005b610171600480360381019061016c9190610e28565b610cc4565b6040516101849796959493929190610fee565b60405180910390f35b7f000000000000000000000000000000000000000000000000000000000000000081565b60006001600083815260200190815260200160002090508060010160009054906101000a900473ffffffffffffffffffffffffffffffffffffffff1673ffffffffffffffffffffffffffffffffffffffff163373ffffffffffffffffffffffffffffffffffffffff161461025a576040517f08c379a0000000000000000000000000000000000000000000000000000000008152600401610251906110ba565b60405180910390fd5b8060060160009054906101000a900460ff16156102ac576040517f08c379a00000000000000000000000000000000000000000000000000000000081526004016102a390611126565b60405180910390fd5b6000612710826003015483600201546102c59190611175565b6102cf91906111e6565b82600201546102de9190611217565b90507f000000000000000000000000000000000000000000000000000000000000000073ffffffffffffffffffffffffffffffffffffffff166323b872dd3330846040518463ffffffff1660e01b815260040161033d9392919061124b565b6020604051808303816000875af115801561035c573d6000803e3d6000fd5b505050506040513d601f19601f8201168201806040525081019061038091906112ae565b507f000000000000000000000000000000000000000000000000000000000000000073ffffffffffffffffffffffffffffffffffffffff1663a9059cbb8360000160009054906101000a900473ffffffffffffffffffffffffffffffffffffffff16836040518363ffffffff1660e01b81526004016104009291906112db565b6020604051808303816000875af115801561041f573d6000803e3d6000fd5b505050506040513d601f19601f8201168201806040525081019061044391906112ae565b5060018260060160006101000a81548160ff021916908315150217905550827f33a382daad6aace935340a474d09fec82af4bec7e2b69518d283231b03a65f2460405160405180910390a2505050565b6000600160008381526020019081526020016000209050600073ffffffffffffffffffffffffffffffffffffffff168160010160009054906101000a900473ffffffffffffffffffffffffffffffffffffffff1673ffffffffffffffffffffffffffffffffffffffff160361053d576040517f08c379a000000000000000000000000000000000000000000000000000000000815260040161053490611350565b60405180910390fd5b8060060160009054906101000a900460ff161561058f576040517f08c379a000000000000000000000000000000000000000000000000000000000815260040161058690611126565b60405180910390fd5b806005015442116105d5576040517f08c379a00000000000000000000000000000000000000000000000000000000081526004016105cc906113bc565b60405180910390fd5b60018160060160006101000a81548160ff0219169083151502179055507f000000000000000000000000000000000000000000000000000000000000000073ffffffffffffffffffffffffffffffffffffffff1663a9059cbb8260000160009054906101000a900473ffffffffffffffffffffffffffffffffffffffff1683600201546040518363ffffffff1660e01b81526004016106759291906112db565b6020604051808303816000875af1158015610694573d6000803e3d6000fd5b505050506040513d601f19601f820116820180604052508101906106b891906112ae565b505050565b7f000000000000000000000000000000000000000000000000000000000000000073ffffffffffffffffffffffffffffffffffffffff166323b872dd3330866040518463ffffffff1660e01b815260040161071a9392919061124b565b6020604051808303816000875af1158015610739573d6000803e3d6000fd5b505050506040513d601f19601f8201168201806040525081019061075d91906112ae565b506040518060e001604052803373ffffffffffffffffffffffffffffffffffffffff168152602001600073ffffffffffffffffffffffffffffffffffffffff1681526020018481526020018381526020018281526020016000815260200160001515815250600160008054815260200190815260200160002060008201518160000160006101000a81548173ffffffffffffffffffffffffffffffffffffffff021916908373ffffffffffffffffffffffffffffffffffffffff16021790555060208201518160010160006101000a81548173ffffffffffffffffffffffffffffffffffffffff021916908373ffffffffffffffffffffffffffffffffffffffff16021790555060408201518160020155606082015181600301556080820151816004015560a0820151816005015560c08201518160060160006101000a81548160ff0219169083151502179055509050503373ffffffffffffffffffffffffffffffffffffffff166000547f5e73c1ef5b7ae3554bd9957172a5aae24fd7180cfd0e7c5a8f869f93cc93e84f8585856040516108fc939291906113dc565b60405180910390a360008081548092919061091690611413565b9190505550505050565b6060600080600190505b6000548110156109c057600073ffffffffffffffffffffffffffffffffffffffff166001600083815260200190815260200160002060010160009054906101000a900473ffffffffffffffffffffffffffffffffffffffff1673ffffffffffffffffffffffffffffffffffffffff16036109ad5781806109a990611413565b9250505b80806109b890611413565b91505061092a565b508067ffffffffffffffff8111156109db576109da61145b565b5b604051908082528060200260200182016040528015610a095781602001602082028036833780820191505090505b509150600080600190505b600054811015610ac857600073ffffffffffffffffffffffffffffffffffffffff166001600083815260200190815260200160002060010160009054906101000a900473ffffffffffffffffffffffffffffffffffffffff1673ffffffffffffffffffffffffffffffffffffffff1603610ab55780848380610a9590611413565b945081518110610aa857610aa761148a565b5b6020026020010181815250505b8080610ac090611413565b915050610a14565b50505090565b60005481565b6000600160008381526020019081526020016000209050600073ffffffffffffffffffffffffffffffffffffffff168160010160009054906101000a900473ffffffffffffffffffffffffffffffffffffffff1673ffffffffffffffffffffffffffffffffffffffff1614610b7e576040517f08c379a0000000000000000000000000000000000000000000000000000000008152600401610b7590611505565b60405180910390fd5b338160010160006101000a81548173ffffffffffffffffffffffffffffffffffffffff021916908373ffffffffffffffffffffffffffffffffffffffff160217905550806004015442610bd19190611217565b81600501819055507f000000000000000000000000000000000000000000000000000000000000000073ffffffffffffffffffffffffffffffffffffffff1663a9059cbb3383600201546040518363ffffffff1660e01b8152600401610c389291906112db565b6020604051808303816000875af1158015610c57573d6000803e3d6000fd5b505050506040513d601f19601f82011682018060405250810190610c7b91906112ae565b503373ffffffffffffffffffffffffffffffffffffffff16827fec4eee35e0123e111ca1e78b349d631065c4e0d60bd85b917217cdf2fc749dd160405160405180910390a35050565b60016020528060005260406000206000915090508060000160009054906101000a900473ffffffffffffffffffffffffffffffffffffffff16908060010160009054906101000a900473ffffffffffffffffffffffffffffffffffffffff16908060020154908060030154908060040154908060050154908060060160009054906101000a900460ff16905087565b600073ffffffffffffffffffffffffffffffffffffffff82169050919050565b6000819050919050565b6000610d98610d93610d8e84610d53565b610d73565b610d53565b9050919050565b6000610daa82610d7d565b9050919050565b6000610dbc82610d9f565b9050919050565b610dcc81610db1565b82525050565b6000602082019050610de76000830184610dc3565b92915050565b600080fd5b6000819050919050565b610e0581610df2565b8114610e1057600080fd5b50565b600081359050610e2281610dfc565b92915050565b600060208284031215610e3e57610e3d610ded565b5b6000610e4c84828501610e13565b91505092915050565b600080600060608486031215610e6e57610e6d610ded565b5b6000610e7c86828701610e13565b9350506020610e8d86828701610e13565b9250506040610e9e86828701610e13565b9150509250925092565b600081519050919050565b600082825260208201905092915050565b6000819050602082019050919050565b610edd81610df2565b82525050565b6000610eef8383610ed4565b60208301905092915050565b6000602082019050919050565b6000610f1382610ea8565b610f1d8185610eb3565b9350610f2883610ec4565b8060005b83811015610f59578151610f408882610ee3565b9750610f4b83610efb565b925050600181019050610f2c565b5085935050505092915050565b60006020820190508181036000830152610f808184610f08565b905092915050565b610f9181610df2565b82525050565b6000602082019050610fac6000830184610f88565b92915050565b6000610fbd82610d53565b9050919050565b610fcd81610fb2565b82525050565b60008115159050919050565b610fe881610fd3565b82525050565b600060e082019050611003600083018a610fc4565b6110106020830189610fc4565b61101d6040830188610f88565b61102a6060830187610f88565b6110376080830186610f88565b61104460a0830185610f88565b61105160c0830184610fdf565b98975050505050505050565b600082825260208201905092915050565b7f6f6e6c7920626f72726f77657200000000000000000000000000000000000000600082015250565b60006110a4600d8361105d565b91506110af8261106e565b602082019050919050565b600060208201905081810360008301526110d381611097565b9050919050565b7f7265706169640000000000000000000000000000000000000000000000000000600082015250565b600061111060068361105d565b915061111b826110da565b602082019050919050565b6000602082019050818103600083015261113f81611103565b9050919050565b7f4e487b7100000000000000000000000000000000000000000000000000000000600052601160045260246000fd5b600061118082610df2565b915061118b83610df2565b925082820261119981610df2565b915082820484148315176111b0576111af611146565b5b5092915050565b7f4e487b7100000000000000000000000000000000000000000000000000000000600052601260045260246000fd5b60006111f182610df2565b91506111fc83610df2565b92508261120c5761120b6111b7565b5b828204905092915050565b600061122282610df2565b915061122d83610df2565b925082820190508082111561124557611244611146565b5b92915050565b60006060820190506112606000830186610fc4565b61126d6020830185610fc4565b61127a6040830184610f88565b949350505050565b61128b81610fd3565b811461129657600080fd5b50565b6000815190506112a881611282565b92915050565b6000602082840312156112c4576112c3610ded565b5b60006112d284828501611299565b91505092915050565b60006040820190506112f06000830185610fc4565b6112fd6020830184610f88565b9392505050565b7f6e6f742061636365707465640000000000000000000000000000000000000000600082015250565b600061133a600c8361105d565b915061134582611304565b602082019050919050565b600060208201905081810360008301526113698161132d565b9050919050565b7f6e6f74206f766572647565000000000000000000000000000000000000000000600082015250565b60006113a6600b8361105d565b91506113b182611370565b602082019050919050565b600060208201905081810360008301526113d581611399565b9050919050565b60006060820190506113f16000830186610f88565b6113fe6020830185610f88565b61140b6040830184610f88565b949350505050565b600061141e82610df2565b91507fffffffffffffffffffffffffffffffffffffffffffffffffffffffffffffffff82036114505761144f611146565b5b600182019050919050565b7f4e487b7100000000000000000000000000000000000000000000000000000000600052604160045260246000fd5b7f4e487b7100000000000000000000000000000000000000000000000000000000600052603260045260246000fd5b7f74616b656e000000000000000000000000000000000000000000000000000000600082015250565b60006114ef60058361105d565b91506114fa826114b9565b602082019050919050565b6000602082019050818103600083015261151e816114e2565b905091905056fea2646970667358221220f923691407297eba4c9d0f94e25a784be531604180fb6482c26b076f99bcb14d64736f6c63430008140033","opcodes":"PUSH1 0xA0 PUSH1 0x40 MSTORE PUSH1 0x1 PUSH1 0x0 SSTORE CALLVALUE DUP1 ISZERO PUSH3 0x16 JUMPI PUSH1 0x0 DUP1 REVERT JUMPDEST POP PUSH1 0x40 MLOAD PUSH3 0x16AD CODESIZE SUB DUP1 PUSH3 0x16AD DUP4 CODECOPY DUP2 DUP2 ADD PUSH1 0x40 MSTORE DUP2 ADD SWAP1 PUSH3 0x3C SWAP2 SWAP1 PUSH3 0xE1 JUMP JUMPDEST DUP1 PUSH20 0xFFFFFFFFFFFFFFFFFFFFFFFFFFFFFFFFFFFFFFFF AND PUSH1 0x80 DUP2 PUSH20 0xFFFFFFFFFFFFFFFFFFFFFFFFFFFFFFFFFFFFFFFF AND DUP2 MSTORE POP POP POP PUSH3 0x113 JUMP JUMPDEST PUSH1 0x0 DUP1 REVERT JUMPDEST PUSH1 0x0 PUSH20 0xFFFFFFFFFFFFFFFFFFFFFFFFFFFFFFFFFFFFFFFF DUP3 AND SWAP1 POP SWAP2 SWAP1 POP JUMP JUMPDEST PUSH1 0x0 PUSH3 0xA9 DUP3 PUSH3 0x7C JUMP JUMPDEST SWAP1 POP SWAP2 SWAP1 POP JUMP JUMPDEST PUSH3 0xBB DUP2 PUSH3 0x9C JUMP JUMPDEST DUP2 EQ PUSH3 0xC7 JUMPI PUSH1 0x0 DUP1 REVERT JUMPDEST POP JUMP JUMPDEST PUSH1 0x0 DUP2 MLOAD SWAP1 POP PUSH3 0xDB DUP2 PUSH3 0xB0 JUMP JUMPDEST SWAP3 SWAP2 POP POP JUMP JUMPDEST PUSH1 0x0 PUSH1 0x20 DUP3 DUP5 SUB SLT ISZERO PUSH3 0xFA JUMPI PUSH3 0xF9 PUSH3 0x77 JUMP JUMPDEST JUMPDEST PUSH1 0x0 PUSH3 0x10A DUP5 DUP3 DUP6 ADD PUSH3 0xCA JUMP JUMPDEST SWAP2 POP POP SWAP3 SWAP2 POP POP JUMP JUMPDEST PUSH1 0x80 MLOAD PUSH2 0x155B PUSH3 0x152 PUSH1 0x0 CODECOPY PUSH1 0x0 DUP2 DUP2 PUSH2 0x18F ADD MSTORE DUP2 DUP2 PUSH2 0x2E2 ADD MSTORE DUP2 DUP2 PUSH2 0x383 ADD MSTORE DUP2 DUP2 PUSH2 0x5F4 ADD MSTORE DUP2 DUP2 PUSH2 0x6BF ADD MSTORE PUSH2 0xBDB ADD MSTORE PUSH2 0x155B PUSH1 0x0 RETURN INVALID PUSH1 0x80 PUSH1 0x40 MSTORE CALLVALUE DUP1 ISZERO PUSH2 0x10 JUMPI PUSH1 0x0 DUP1 REVERT JUMPDEST POP PUSH1 0x4 CALLDATASIZE LT PUSH2 0x88 JUMPI PUSH1 0x0 CALLDATALOAD PUSH1 0xE0 SHR DUP1 PUSH4 0x7DD17EFF GT PUSH2 0x5B JUMPI DUP1 PUSH4 0x7DD17EFF EQ PUSH2 0xFF JUMPI DUP1 PUSH4 0x87C51459 EQ PUSH2 0x11D JUMPI DUP1 PUSH4 0xADFBE22F EQ PUSH2 0x13B JUMPI DUP1 PUSH4 0xE1EC3C68 EQ PUSH2 0x157 JUMPI PUSH2 0x88 JUMP JUMPDEST DUP1 PUSH4 0x1BF6C21B EQ PUSH2 0x8D JUMPI DUP1 PUSH4 0x371FD8E6 EQ PUSH2 0xAB JUMPI DUP1 PUSH4 0x415F1240 EQ PUSH2 0xC7 JUMPI DUP1 PUSH4 0x6AC00E43 EQ PUSH2 0xE3 JUMPI JUMPDEST PUSH1 0x0 DUP1 REVERT JUMPDEST PUSH2 0x95 PUSH2 0x18D JUMP JUMPDEST PUSH1 0x40 MLOAD PUSH2 0xA2 SWAP2 SWAP1 PUSH2 0xDD2 JUMP JUMPDEST PUSH1 0x40 MLOAD DUP1 SWAP2 SUB SWAP1 RETURN JUMPDEST PUSH2 0xC5 PUSH1 0x4 DUP1 CALLDATASIZE SUB DUP2 ADD SWAP1 PUSH2 0xC0 SWAP2 SWAP1 PUSH2 0xE28 JUMP JUMPDEST PUSH2 0x1B1 JUMP JUMPDEST STOP JUMPDEST PUSH2 0xE1 PUSH1 0x4 DUP1 CALLDATASIZE SUB DUP2 ADD SWAP1 PUSH2 0xDC SWAP2 SWAP1 PUSH2 0xE28 JUMP JUMPDEST PUSH2 0x493 JUMP JUMPDEST STOP JUMPDEST PUSH2 0xFD PUSH1 0x4 DUP1 CALLDATASIZE SUB DUP2 ADD SWAP1 PUSH2 0xF8 SWAP2 SWAP1 PUSH2 0xE55 JUMP JUMPDEST PUSH2 0x6BD JUMP JUMPDEST STOP JUMPDEST PUSH2 0x107 PUSH2 0x920 JUMP JUMPDEST PUSH1 0x40 MLOAD PUSH2 0x114 SWAP2 SWAP1 PUSH2 0xF66 JUMP JUMPDEST PUSH1 0x40 MLOAD DUP1 SWAP2 SUB SWAP1 RETURN JUMPDEST PUSH2 0x125 PUSH2 0xACE JUMP JUMPDEST PUSH1 0x40 MLOAD PUSH2 0x132 SWAP2 SWAP1 PUSH2 0xF97 JUMP JUMPDEST PUSH1 0x40 MLOAD DUP1 SWAP2 SUB SWAP1 RETURN JUMPDEST PUSH2 0x155 PUSH1 0x4 DUP1 CALLDATASIZE SUB DUP2 ADD SWAP1 PUSH2 0x150 SWAP2 SWAP1 PUSH2 0xE28 JUMP JUMPDEST PUSH2 0xAD4 JUMP JUMPDEST STOP JUMPDEST PUSH2 0x171 PUSH1 0x4 DUP1 CALLDATASIZE SUB DUP2 ADD SWAP1 PUSH2 0x16C SWAP2 SWAP1 PUSH2 0xE28 JUMP JUMPDEST PUSH2 0xCC4 JUMP JUMPDEST PUSH1 0x40 MLOAD PUSH2 0x184 SWAP8 SWAP7 SWAP6 SWAP5 SWAP4 SWAP3 SWAP2 SWAP1 PUSH2 0xFEE JUMP JUMPDEST PUSH1 0x40 MLOAD DUP1 SWAP2 SUB SWAP1 RETURN JUMPDEST PUSH32 0x0 DUP2 JUMP JUMPDEST PUSH1 0x0 PUSH1 0x1 PUSH1 0x0 DUP4 DUP2 MSTORE PUSH1 0x20 ADD SWAP1 DUP2 MSTORE PUSH1 0x20 ADD PUSH1 0x0 KECCAK256 SWAP1 POP DUP1 PUSH1 0x1 ADD PUSH1 0x0 SWAP1 SLOAD SWAP1 PUSH2 0x100 EXP SWAP1 DIV PUSH20 0xFFFFFFFFFFFFFFFFFFFFFFFFFFFFFFFFFFFFFFFF AND PUSH20 0xFFFFFFFFFFFFFFFFFFFFFFFFFFFFFFFFFFFFFFFF AND CALLER PUSH20 0xFFFFFFFFFFFFFFFFFFFFFFFFFFFFFFFFFFFFFFFF AND EQ PUSH2 0x25A JUMPI PUSH1 0x40 MLOAD PUSH32 0x8C379A000000000000000000000000000000000000000000000000000000000 DUP2 MSTORE PUSH1 0x4 ADD PUSH2 0x251 SWAP1 PUSH2 0x10BA JUMP JUMPDEST PUSH1 0x40 MLOAD DUP1 SWAP2 SUB SWAP1 REVERT JUMPDEST DUP1 PUSH1 0x6 ADD PUSH1 0x0 SWAP1 SLOAD SWAP1 PUSH2 0x100 EXP SWAP1 DIV PUSH1 0xFF AND ISZERO PUSH2 0x2AC JUMPI PUSH1 0x40 MLOAD PUSH32 0x8C379A000000000000000000000000000000000000000000000000000000000 DUP2 MSTORE PUSH1 0x4 ADD PUSH2 0x2A3 SWAP1 PUSH2 0x1126 JUMP JUMPDEST PUSH1 0x40 MLOAD DUP1 SWAP2 SUB SWAP1 REVERT JUMPDEST PUSH1 0x0 PUSH2 0x2710 DUP3 PUSH1 0x3 ADD SLOAD DUP4 PUSH1 0x2 ADD SLOAD PUSH2 0x2C5 SWAP2 SWAP1 PUSH2 0x1175 JUMP JUMPDEST PUSH2 0x2CF SWAP2 SWAP1 PUSH2 0x11E6 JUMP JUMPDEST DUP3 PUSH1 0x2 ADD SLOAD PUSH2 0x2DE SWAP2 SWAP1 PUSH2 0x1217 JUMP JUMPDEST SWAP1 POP PUSH32 0x0 PUSH20 0xFFFFFFFFFFFFFFFFFFFFFFFFFFFFFFFFFFFFFFFF AND PUSH4 0x23B872DD CALLER ADDRESS DUP5 PUSH1 0x40 MLOAD DUP5 PUSH4 0xFFFFFFFF AND PUSH1 0xE0 SHL DUP2 MSTORE PUSH1 0x4 ADD PUSH2 0x33D SWAP4 SWAP3 SWAP2 SWAP1 PUSH2 0x124B JUMP JUMPDEST PUSH1 0x20 PUSH1 0x40 MLOAD DUP1 DUP4 SUB DUP2 PUSH1 0x0 DUP8 GAS CALL ISZERO DUP1 ISZERO PUSH2 0x35C JUMPI RETURNDATASIZE PUSH1 0x0 DUP1 RETURNDATACOPY RETURNDATASIZE PUSH1 0x0 REVERT JUMPDEST POP POP POP POP PUSH1 0x40 MLOAD RETURNDATASIZE PUSH1 0x1F NOT PUSH1 0x1F DUP3 ADD AND DUP3 ADD DUP1 PUSH1 0x40 MSTORE POP DUP2 ADD SWAP1 PUSH2 0x380 SWAP2 SWAP1 PUSH2 0x12AE JUMP JUMPDEST POP PUSH32 0x0 PUSH20 0xFFFFFFFFFFFFFFFFFFFFFFFFFFFFFFFFFFFFFFFF AND PUSH4 0xA9059CBB DUP4 PUSH1 0x0 ADD PUSH1 0x0 SWAP1 SLOAD SWAP1 PUSH2 0x100 EXP SWAP1 DIV PUSH20 0xFFFFFFFFFFFFFFFFFFFFFFFFFFFFFFFFFFFFFFFF AND DUP4 PUSH1 0x40 MLOAD DUP4 PUSH4 0xFFFFFFFF AND PUSH1 0xE0 SHL DUP2 MSTORE PUSH1 0x4 ADD PUSH2 0x400 SWAP3 SWAP2 SWAP1 PUSH2 0x12DB JUMP JUMPDEST PUSH1 0x20 PUSH1 0x40 MLOAD DUP1 DUP4 SUB DUP2 PUSH1 0x0 DUP8 GAS CALL ISZERO DUP1 ISZERO PUSH2 0x41F JUMPI RETURNDATASIZE PUSH1 0x0 DUP1 RETURNDATACOPY RETURNDATASIZE PUSH1 0x0 REVERT JUMPDEST POP POP POP POP PUSH1 0x40 MLOAD RETURNDATASIZE PUSH1 0x1F NOT PUSH1 0x1F DUP3 ADD AND DUP3 ADD DUP1 PUSH1 0x40 MSTORE POP DUP2 ADD SWAP1 PUSH2 0x443 SWAP2 SWAP1 PUSH2 0x12AE JUMP JUMPDEST POP PUSH1 0x1 DUP3 PUSH1 0x6 ADD PUSH1 0x0 PUSH2 0x100 EXP DUP2 SLOAD DUP2 PUSH1 0xFF MUL NOT AND SWAP1 DUP4 ISZERO ISZERO MUL OR SWAP1 SSTORE POP DUP3 PUSH32 0x33A382DAAD6AACE935340A474D09FEC82AF4BEC7E2B69518D283231B03A65F24 PUSH1 0x40 MLOAD PUSH1 0x40 MLOAD DUP1 SWAP2 SUB SWAP1 LOG2 POP POP POP JUMP JUMPDEST PUSH1 0x0 PUSH1 0x1 PUSH1 0x0 DUP4 DUP2 MSTORE PUSH1 0x20 ADD SWAP1 DUP2 MSTORE PUSH1 0x20 ADD PUSH1 0x0 KECCAK256 SWAP1 POP PUSH1 0x0 PUSH20 0xFFFFFFFFFFFFFFFFFFFFFFFFFFFFFFFFFFFFFFFF AND DUP2 PUSH1 0x1 ADD PUSH1 0x0 SWAP1 SLOAD SWAP1 PUSH2 0x100 EXP SWAP1 DIV PUSH20 0xFFFFFFFFFFFFFFFFFFFFFFFFFFFFFFFFFFFFFFFF AND PUSH20 0xFFFFFFFFFFFFFFFFFFFFFFFFFFFFFFFFFFFFFFFF AND SUB PUSH2 0x53D JUMPI PUSH1 0x40 MLOAD PUSH32 0x8C379A000000000000000000000000000000000000000000000000000000000 DUP2 MSTORE PUSH1 0x4 ADD PUSH2 0x534 SWAP1 PUSH2 0x1350 JUMP JUMPDEST PUSH1 0x40 MLOAD DUP1 SWAP2 SUB SWAP1 REVERT JUMPDEST DUP1 PUSH1 0x6 ADD PUSH1 0x0 SWAP1 SLOAD SWAP1 PUSH2 0x100 EXP SWAP1 DIV PUSH1 0xFF AND ISZERO PUSH2 0x58F JUMPI PUSH1 0x40 MLOAD PUSH32 0x8C379A000000000000000000000000000000000000000000000000000000000 DUP2 MSTORE PUSH1 0x4 ADD PUSH2 0x586 SWAP1 PUSH2 0x1126 JUMP JUMPDEST PUSH1 0x40 MLOAD DUP1 SWAP2 SUB SWAP1 REVERT JUMPDEST DUP1 PUSH1 0x5 ADD SLOAD TIMESTAMP GT PUSH2 0x5D5 JUMPI PUSH1 0x40 MLOAD PUSH32 0x8C379A000000000000000000000000000000000000000000000000000000000 DUP2 MSTORE PUSH1 0x4 ADD PUSH2 0x5CC SWAP1 PUSH2 0x13BC JUMP JUMPDEST PUSH1 0x40 MLOAD DUP1 SWAP2 SUB SWAP1 REVERT JUMPDEST PUSH1 0x1 DUP2 PUSH1 0x6 ADD PUSH1 0x0 PUSH2 0x100 EXP DUP2 SLOAD DUP2 PUSH1 0xFF MUL NOT AND SWAP1 DUP4 ISZERO ISZERO MUL OR SWAP1 SSTORE POP PUSH32 0x0 PUSH20 0xFFFFFFFFFFFFFFFFFFFFFFFFFFFFFFFFFFFFFFFF AND PUSH4 0xA9059CBB DUP3 PUSH1 0x0 ADD PUSH1 0x0 SWAP1 SLOAD SWAP1 PUSH2 0x100 EXP SWAP1 DIV PUSH20 0xFFFFFFFFFFFFFFFFFFFFFFFFFFFFFFFFFFFFFFFF AND DUP4 PUSH1 0x2 ADD SLOAD PUSH1 0x40 MLOAD DUP4 PUSH4 0xFFFFFFFF AND PUSH1 0xE0 SHL DUP2 MSTORE PUSH1 0x4 ADD PUSH2 0x675 SWAP3 SWAP2 SWAP1 PUSH2 0x12DB JUMP JUMPDEST PUSH1 0x20 PUSH1 0x40 MLOAD DUP1 DUP4 SUB DUP2 PUSH1 0x0 DUP8 GAS CALL ISZERO DUP1 ISZERO PUSH2 0x694 JUMPI RETURNDATASIZE PUSH1 0x0 DUP1 RETURNDATACOPY RETURNDATASIZE PUSH1 0x0 REVERT JUMPDEST POP POP POP POP PUSH1 0x40 MLOAD RETURNDATASIZE PUSH1 0x1F NOT PUSH1 0x1F DUP3 ADD AND DUP3 ADD DUP1 PUSH1 0x40 MSTORE POP DUP2 ADD SWAP1 PUSH2 0x6B8 SWAP2 SWAP1 PUSH2 0x12AE JUMP JUMPDEST POP POP POP JUMP JUMPDEST PUSH32 0x0 PUSH20 0xFFFFFFFFFFFFFFFFFFFFFFFFFFFFFFFFFFFFFFFF AND PUSH4 0x23B872DD CALLER ADDRESS DUP7 PUSH1 0x40 MLOAD DUP5 PUSH4 0xFFFFFFFF AND PUSH1 0xE0 SHL DUP2 MSTORE PUSH1 0x4 ADD PUSH2 0x71A SWAP4 SWAP3 SWAP2 SWAP1 PUSH2 0x124B JUMP JUMPDEST PUSH1 0x20 PUSH1 0x40 MLOAD DUP1 DUP4 SUB DUP2 PUSH1 0x0 DUP8 GAS CALL ISZERO DUP1 ISZERO PUSH2 0x739 JUMPI RETURNDATASIZE PUSH1 0x0 DUP1 RETURNDATACOPY RETURNDATASIZE PUSH1 0x0 REVERT JUMPDEST POP POP POP POP PUSH1 0x40 MLOAD RETURNDATASIZE PUSH1 0x1F NOT PUSH1 0x1F DUP3 ADD AND DUP3 ADD DUP1 PUSH1 0x40 MSTORE POP DUP2 ADD SWAP1 PUSH2 0x75D SWAP2 SWAP1 PUSH2 0x12AE JUMP JUMPDEST POP PUSH1 0x40 MLOAD DUP1 PUSH1 0xE0 ADD PUSH1 0x40 MSTORE DUP1 CALLER PUSH20 0xFFFFFFFFFFFFFFFFFFFFFFFFFFFFFFFFFFFFFFFF AND DUP2 MSTORE PUSH1 0x20 ADD PUSH1 0x0 PUSH20 0xFFFFFFFFFFFFFFFFFFFFFFFFFFFFFFFFFFFFFFFF AND DUP2 MSTORE PUSH1 0x20 ADD DUP5 DUP2 MSTORE PUSH1 0x20 ADD DUP4 DUP2 MSTORE PUSH1 0x20 ADD DUP3 DUP2 MSTORE PUSH1 0x20 ADD PUSH1 0x0 DUP2 MSTORE PUSH1 0x20 ADD PUSH1 0x0 ISZERO ISZERO DUP2 MSTORE POP PUSH1 0x1 PUSH1 0x0 DUP1 SLOAD DUP2 MSTORE PUSH1 0x20 ADD SWAP1 DUP2 MSTORE PUSH1 0x20 ADD PUSH1 0x0 KECCAK256 PUSH1 0x0 DUP3 ADD MLOAD DUP2 PUSH1 0x0 ADD PUSH1 0x0 PUSH2 0x100 EXP DUP2 SLOAD DUP2 PUSH20 0xFFFFFFFFFFFFFFFFFFFFFFFFFFFFFFFFFFFFFFFF MUL NOT AND SWAP1 DUP4 PUSH20 0xFFFFFFFFFFFFFFFFFFFFFFFFFFFFFFFFFFFFFFFF AND MUL OR SWAP1 SSTORE POP PUSH1 0x20 DUP3 ADD MLOAD DUP2 PUSH1 0x1 ADD PUSH1 0x0 PUSH2 0x100 EXP DUP2 SLOAD DUP2 PUSH20 0xFFFFFFFFFFFFFFFFFFFFFFFFFFFFFFFFFFFFFFFF MUL NOT AND SWAP1 DUP4 PUSH20 0xFFFFFFFFFFFFFFFFFFFFFFFFFFFFFFFFFFFFFFFF AND MUL OR SWAP1 SSTORE POP PUSH1 0x40 DUP3 ADD MLOAD DUP2 PUSH1 0x2 ADD SSTORE PUSH1 0x60 DUP3 ADD MLOAD DUP2 PUSH1 0x3 ADD SSTORE PUSH1 0x80 DUP3 ADD MLOAD DUP2 PUSH1 0x4 ADD SSTORE PUSH1 0xA0 DUP3 ADD MLOAD DUP2 PUSH1 0x5 ADD SSTORE PUSH1 0xC0 DUP3 ADD MLOAD DUP2 PUSH1 0x6 ADD PUSH1 0x0 PUSH2 0x100 EXP DUP2 SLOAD DUP2 PUSH1 0xFF MUL NOT AND SWAP1 DUP4 ISZERO ISZERO MUL OR SWAP1 SSTORE POP SWAP1 POP POP CALLER PUSH20 0xFFFFFFFFFFFFFFFFFFFFFFFFFFFFFFFFFFFFFFFF AND PUSH1 0x0 SLOAD PUSH32 0x5E73C1EF5B7AE3554BD9957172A5AAE24FD7180CFD0E7C5A8F869F93CC93E84F DUP6 DUP6 DUP6 PUSH1 0x40 MLOAD PUSH2 0x8FC SWAP4 SWAP3 SWAP2 SWAP1 PUSH2 0x13DC JUMP JUMPDEST PUSH1 0x40 MLOAD DUP1 SWAP2 SUB SWAP1 LOG3 PUSH1 0x0 DUP1 DUP2 SLOAD DUP1 SWAP3 SWAP2 SWAP1 PUSH2 0x916 SWAP1 PUSH2 0x1413 JUMP JUMPDEST SWAP2 SWAP1 POP SSTORE POP POP POP POP JUMP JUMPDEST PUSH1 0x60 PUSH1 0x0 DUP1 PUSH1 0x1 SWAP1 POP JUMPDEST PUSH1 0x0 SLOAD DUP2 LT ISZERO PUSH2 0x9C0 JUMPI PUSH1 0x0 PUSH20 0xFFFFFFFFFFFFFFFFFFFFFFFFFFFFFFFFFFFFFFFF AND PUSH1 0x1 PUSH1 0x0 DUP4 DUP2 MSTORE PUSH1 0x20 ADD SWAP1 DUP2 MSTORE PUSH1 0x20 ADD PUSH1 0x0 KECCAK256 PUSH1 0x1 ADD PUSH1 0x0 SWAP1 SLOAD SWAP1 PUSH2 0x100 EXP SWAP1 DIV PUSH20 0xFFFFFFFFFFFFFFFFFFFFFFFFFFFFFFFFFFFFFFFF AND PUSH20 0xFFFFFFFFFFFFFFFFFFFFFFFFFFFFFFFFFFFFFFFF AND SUB PUSH2 0x9AD JUMPI DUP2 DUP1 PUSH2 0x9A9 SWAP1 PUSH2 0x1413 JUMP JUMPDEST SWAP3 POP POP JUMPDEST DUP1 DUP1 PUSH2 0x9B8 SWAP1 PUSH2 0x1413 JUMP JUMPDEST SWAP2 POP POP PUSH2 0x92A JUMP JUMPDEST POP DUP1 PUSH8 0xFFFFFFFFFFFFFFFF DUP2 GT ISZERO PUSH2 0x9DB JUMPI PUSH2 0x9DA PUSH2 0x145B JUMP JUMPDEST JUMPDEST PUSH1 0x40 MLOAD SWAP1 DUP1 DUP3 MSTORE DUP1 PUSH1 0x20 MUL PUSH1 0x20 ADD DUP3 ADD PUSH1 0x40 MSTORE DUP1 ISZERO PUSH2 0xA09 JUMPI DUP2 PUSH1 0x20 ADD PUSH1 0x20 DUP3 MUL DUP1 CALLDATASIZE DUP4 CALLDATACOPY DUP1 DUP3 ADD SWAP2 POP POP SWAP1 POP JUMPDEST POP SWAP2 POP PUSH1 0x0 DUP1 PUSH1 0x1 SWAP1 POP JUMPDEST PUSH1 0x0 SLOAD DUP2 LT ISZERO PUSH2 0xAC8 JUMPI PUSH1 0x0 PUSH20 0xFFFFFFFFFFFFFFFFFFFFFFFFFFFFFFFFFFFFFFFF AND PUSH1 0x1 PUSH1 0x0 DUP4 DUP2 MSTORE PUSH1 0x20 ADD SWAP1 DUP2 MSTORE PUSH1 0x20 ADD PUSH1 0x0 KECCAK256 PUSH1 0x1 ADD PUSH1 0x0 SWAP1 SLOAD SWAP1 PUSH2 0x100 EXP SWAP1 DIV PUSH20 0xFFFFFFFFFFFFFFFFFFFFFFFFFFFFFFFFFFFFFFFF AND PUSH20 0xFFFFFFFFFFFFFFFFFFFFFFFFFFFFFFFFFFFFFFFF AND SUB PUSH2 0xAB5 JUMPI DUP1 DUP5 DUP4 DUP1 PUSH2 0xA95 SWAP1 PUSH2 0x1413 JUMP JUMPDEST SWAP5 POP DUP2 MLOAD DUP2 LT PUSH2 0xAA8 JUMPI PUSH2 0xAA7 PUSH2 0x148A JUMP JUMPDEST JUMPDEST PUSH1 0x20 MUL PUSH1 0x20 ADD ADD DUP2 DUP2 MSTORE POP POP JUMPDEST DUP1 DUP1 PUSH2 0xAC0 SWAP1 PUSH2 0x1413 JUMP JUMPDEST SWAP2 POP POP PUSH2 0xA14 JUMP JUMPDEST POP POP POP SWAP1 JUMP JUMPDEST PUSH1 0x0 SLOAD DUP2 JUMP JUMPDEST PUSH1 0x0 PUSH1 0x1 PUSH1 0x0 DUP4 DUP2 MSTORE PUSH1 0x20 ADD SWAP1 DUP2 MSTORE PUSH1 0x20 ADD PUSH1 0x0 KECCAK256 SWAP1 POP PUSH1 0x0 PUSH20 0xFFFFFFFFFFFFFFFFFFFFFFFFFFFFFFFFFFFFFFFF AND DUP2 PUSH1 0x1 ADD PUSH1 0x0 SWAP1 SLOAD SWAP1 PUSH2 0x100 EXP SWAP1 DIV PUSH20 0xFFFFFFFFFFFFFFFFFFFFFFFFFFFFFFFFFFFFFFFF AND PUSH20 0xFFFFFFFFFFFFFFFFFFFFFFFFFFFFFFFFFFFFFFFF AND EQ PUSH2 0xB7E JUMPI PUSH1 0x40 MLOAD PUSH32 0x8C379A000000000000000000000000000000000000000000000000000000000 DUP2 MSTORE PUSH1 0x4 ADD PUSH2 0xB75 SWAP1 PUSH2 0x1505 JUMP JUMPDEST PUSH1 0x40 MLOAD DUP1 SWAP2 SUB SWAP1 REVERT JUMPDEST CALLER DUP2 PUSH1 0x1 ADD PUSH1 0x0 PUSH2 0x100 EXP DUP2 SLOAD DUP2 PUSH20 0xFFFFFFFFFFFFFFFFFFFFFFFFFFFFFFFFFFFFFFFF MUL NOT AND SWAP1 DUP4 PUSH20 0xFFFFFFFFFFFFFFFFFFFFFFFFFFFFFFFFFFFFFFFF AND MUL OR SWAP1 SSTORE POP DUP1 PUSH1 0x4 ADD SLOAD TIMESTAMP PUSH2 0xBD1 SWAP2 SWAP1 PUSH2 0x1217 JUMP JUMPDEST DUP2 PUSH1 0x5 ADD DUP2 SWAP1 SSTORE POP PUSH32 0x0 PUSH20 0xFFFFFFFFFFFFFFFFFFFFFFFFFFFFFFFFFFFFFFFF AND PUSH4 0xA9059CBB CALLER DUP4 PUSH1 0x2 ADD SLOAD PUSH1 0x40 MLOAD DUP4 PUSH4 0xFFFFFFFF AND PUSH1 0xE0 SHL DUP2 MSTORE PUSH1 0x4 ADD PUSH2 0xC38 SWAP3 SWAP2 SWAP1 PUSH2 0x12DB JUMP JUMPDEST PUSH1 0x20 PUSH1 0x40 MLOAD DUP1 DUP4 SUB DUP2 PUSH1 0x0 DUP8 GAS CALL ISZERO DUP1 ISZERO PUSH2 0xC57 JUMPI RETURNDATASIZE PUSH1 0x0 DUP1 RETURNDATACOPY RETURNDATASIZE PUSH1 0x0 REVERT JUMPDEST POP POP POP POP PUSH1 0x40 MLOAD RETURNDATASIZE PUSH1 0x1F NOT PUSH1 0x1F DUP3 ADD AND DUP3 ADD DUP1 PUSH1 0x40 MSTORE POP DUP2 ADD SWAP1 PUSH2 0xC7B SWAP2 SWAP1 PUSH2 0x12AE JUMP JUMPDEST POP CALLER PUSH20 0xFFFFFFFFFFFFFFFFFFFFFFFFFFFFFFFFFFFFFFFF AND DUP3 PUSH32 0xEC4EEE35E0123E111CA1E78B349D631065C4E0D60BD85B917217CDF2FC749DD1 PUSH1 0x40 MLOAD PUSH1 0x40 MLOAD DUP1 SWAP2 SUB SWAP1 LOG3 POP POP JUMP JUMPDEST PUSH1 0x1 PUSH1 0x20 MSTORE DUP1 PUSH1 0x0 MSTORE PUSH1 0x40 PUSH1 0x0 KECCAK256 PUSH1 0x0 SWAP2 POP SWAP1 POP DUP1 PUSH1 0x0 ADD PUSH1 0x0 SWAP1 SLOAD SWAP1 PUSH2 0x100 EXP SWAP1 DIV PUSH20 0xFFFFFFFFFFFFFFFFFFFFFFFFFFFFFFFFFFFFFFFF AND SWAP1 DUP1 PUSH1 0x1 ADD PUSH1 0x0 SWAP1 SLOAD SWAP1 PUSH2 0x100 EXP SWAP1 DIV PUSH20 0xFFFFFFFFFFFFFFFFFFFFFFFFFFFFFFFFFFFFFFFF AND SWAP1 DUP1 PUSH1 0x2 ADD SLOAD SWAP1 DUP1 PUSH1 0x3 ADD SLOAD SWAP1 DUP1 PUSH1 0x4 ADD SLOAD SWAP1 DUP1 PUSH1 0x5 ADD SLOAD SWAP1 DUP1 PUSH1 0x6 ADD PUSH1 0x0 SWAP1 SLOAD SWAP1 PUSH2 0x100 EXP SWAP1 DIV PUSH1 0xFF AND SWAP1 POP DUP8 JUMP JUMPDEST PUSH1 0x0 PUSH20 0xFFFFFFFFFFFFFFFFFFFFFFFFFFFFFFFFFFFFFFFF DUP3 AND SWAP1 POP SWAP2 SWAP1 POP JUMP JUMPDEST PUSH1 0x0 DUP2 SWAP1 POP SWAP2 SWAP1 POP JUMP JUMPDEST PUSH1 0x0 PUSH2 0xD98 PUSH2 0xD93 PUSH2 0xD8E DUP5 PUSH2 0xD53 JUMP JUMPDEST PUSH2 0xD73 JUMP JUMPDEST PUSH2 0xD53 JUMP JUMPDEST SWAP1 POP SWAP2 SWAP1 POP JUMP JUMPDEST PUSH1 0x0 PUSH2 0xDAA DUP3 PUSH2 0xD7D JUMP JUMPDEST SWAP1 POP SWAP2 SWAP1 POP JUMP JUMPDEST PUSH1 0x0 PUSH2 0xDBC DUP3 PUSH2 0xD9F JUMP JUMPDEST SWAP1 POP SWAP2 SWAP1 POP JUMP JUMPDEST PUSH2 0xDCC DUP2 PUSH2 0xDB1 JUMP JUMPDEST DUP3 MSTORE POP POP JUMP JUMPDEST PUSH1 0x0 PUSH1 0x20 DUP3 ADD SWAP1 POP PUSH2 0xDE7 PUSH1 0x0 DUP4 ADD DUP5 PUSH2 0xDC3 JUMP JUMPDEST SWAP3 SWAP2 POP POP JUMP JUMPDEST PUSH1 0x0 DUP1 REVERT JUMPDEST PUSH1 0x0 DUP2 SWAP1 POP SWAP2 SWAP1 POP JUMP JUMPDEST PUSH2 0xE05 DUP2 PUSH2 0xDF2 JUMP JUMPDEST DUP2 EQ PUSH2 0xE10 JUMPI PUSH1 0x0 DUP1 REVERT JUMPDEST POP JUMP JUMPDEST PUSH1 0x0 DUP2 CALLDATALOAD SWAP1 POP PUSH2 0xE22 DUP2 PUSH2 0xDFC JUMP JUMPDEST SWAP3 SWAP2 POP POP JUMP JUMPDEST PUSH1 0x0 PUSH1 0x20 DUP3 DUP5 SUB SLT ISZERO PUSH2 0xE3E JUMPI PUSH2 0xE3D PUSH2 0xDED JUMP JUMPDEST JUMPDEST PUSH1 0x0 PUSH2 0xE4C DUP5 DUP3 DUP6 ADD PUSH2 0xE13 JUMP JUMPDEST SWAP2 POP POP SWAP3 SWAP2 POP POP JUMP JUMPDEST PUSH1 0x0 DUP1 PUSH1 0x0 PUSH1 0x60 DUP5 DUP7 SUB SLT ISZERO PUSH2 0xE6E JUMPI PUSH2 0xE6D PUSH2 0xDED JUMP JUMPDEST JUMPDEST PUSH1 0x0 PUSH2 0xE7C DUP7 DUP3 DUP8 ADD PUSH2 0xE13 JUMP JUMPDEST SWAP4 POP POP PUSH1 0x20 PUSH2 0xE8D DUP7 DUP3 DUP8 ADD PUSH2 0xE13 JUMP JUMPDEST SWAP3 POP POP PUSH1 0x40 PUSH2 0xE9E DUP7 DUP3 DUP8 ADD PUSH2 0xE13 JUMP JUMPDEST SWAP2 POP POP SWAP3 POP SWAP3 POP SWAP3 JUMP JUMPDEST PUSH1 0x0 DUP2 MLOAD SWAP1 POP SWAP2 SWAP1 POP JUMP JUMPDEST PUSH1 0x0 DUP3 DUP3 MSTORE PUSH1 0x20 DUP3 ADD SWAP1 POP SWAP3 SWAP2 POP POP JUMP JUMPDEST PUSH1 0x0 DUP2 SWAP1 POP PUSH1 0x20 DUP3 ADD SWAP1 POP SWAP2 SWAP1 POP JUMP JUMPDEST PUSH2 0xEDD DUP2 PUSH2 0xDF2 JUMP JUMPDEST DUP3 MSTORE POP POP JUMP JUMPDEST PUSH1 0x0 PUSH2 0xEEF DUP4 DUP4 PUSH2 0xED4 JUMP JUMPDEST PUSH1 0x20 DUP4 ADD SWAP1 POP SWAP3 SWAP2 POP POP JUMP JUMPDEST PUSH1 0x0 PUSH1 0x20 DUP3 ADD SWAP1 POP SWAP2 SWAP1 POP JUMP JUMPDEST PUSH1 0x0 PUSH2 0xF13 DUP3 PUSH2 0xEA8 JUMP JUMPDEST PUSH2 0xF1D DUP2 DUP6 PUSH2 0xEB3 JUMP JUMPDEST SWAP4 POP PUSH2 0xF28 DUP4 PUSH2 0xEC4 JUMP JUMPDEST DUP1 PUSH1 0x0 JUMPDEST DUP4 DUP2 LT ISZERO PUSH2 0xF59 JUMPI DUP2 MLOAD PUSH2 0xF40 DUP9 DUP3 PUSH2 0xEE3 JUMP JUMPDEST SWAP8 POP PUSH2 0xF4B DUP4 PUSH2 0xEFB JUMP JUMPDEST SWAP3 POP POP PUSH1 0x1 DUP2 ADD SWAP1 POP PUSH2 0xF2C JUMP JUMPDEST POP DUP6 SWAP4 POP POP POP POP SWAP3 SWAP2 POP POP JUMP JUMPDEST PUSH1 0x0 PUSH1 0x20 DUP3 ADD SWAP1 POP DUP2 DUP2 SUB PUSH1 0x0 DUP4 ADD MSTORE PUSH2 0xF80 DUP2 DUP5 PUSH2 0xF08 JUMP JUMPDEST SWAP1 POP SWAP3 SWAP2 POP POP JUMP JUMPDEST PUSH2 0xF91 DUP2 PUSH2 0xDF2 JUMP JUMPDEST DUP3 MSTORE POP POP JUMP JUMPDEST PUSH1 0x0 PUSH1 0x20 DUP3 ADD SWAP1 POP PUSH2 0xFAC PUSH1 0x0 DUP4 ADD DUP5 PUSH2 0xF88 JUMP JUMPDEST SWAP3 SWAP2 POP POP JUMP JUMPDEST PUSH1 0x0 PUSH2 0xFBD DUP3 PUSH2 0xD53 JUMP JUMPDEST SWAP1 POP SWAP2 SWAP1 POP JUMP JUMPDEST PUSH2 0xFCD DUP2 PUSH2 0xFB2 JUMP JUMPDEST DUP3 MSTORE POP POP JUMP JUMPDEST PUSH1 0x0 DUP2 ISZERO ISZERO SWAP1 POP SWAP2 SWAP1 POP JUMP JUMPDEST PUSH2 0xFE8 DUP2 PUSH2 0xFD3 JUMP JUMPDEST DUP3 MSTORE POP POP JUMP JUMPDEST PUSH1 0x0 PUSH1 0xE0 DUP3 ADD SWAP1 POP PUSH2 0x1003 PUSH1 0x0 DUP4 ADD DUP11 PUSH2 0xFC4 JUMP JUMPDEST PUSH2 0x1010 PUSH1 0x20 DUP4 ADD DUP10 PUSH2 0xFC4 JUMP JUMPDEST PUSH2 0x101D PUSH1 0x40 DUP4 ADD DUP9 PUSH2 0xF88 JUMP JUMPDEST PUSH2 0x102A PUSH1 0x60 DUP4 ADD DUP8 PUSH2 0xF88 JUMP JUMPDEST PUSH2 0x1037 PUSH1 0x80 DUP4 ADD DUP7 PUSH2 0xF88 JUMP JUMPDEST PUSH2 0x1044 PUSH1 0xA0 DUP4 ADD DUP6 PUSH2 0xF88 JUMP JUMPDEST PUSH2 0x1051 PUSH1 0xC0 DUP4 ADD DUP5 PUSH2 0xFDF JUMP JUMPDEST SWAP9 SWAP8 POP POP POP POP POP POP POP POP JUMP JUMPDEST PUSH1 0x0 DUP3 DUP3 MSTORE PUSH1 0x20 DUP3 ADD SWAP1 POP SWAP3 SWAP2 POP POP JUMP JUMPDEST PUSH32 0x6F6E6C7920626F72726F77657200000000000000000000000000000000000000 PUSH1 0x0 DUP3 ADD MSTORE POP JUMP JUMPDEST PUSH1 0x0 PUSH2 0x10A4 PUSH1 0xD DUP4 PUSH2 0x105D JUMP JUMPDEST SWAP2 POP PUSH2 0x10AF DUP3 PUSH2 0x106E JUMP JUMPDEST PUSH1 0x20 DUP3 ADD SWAP1 POP SWAP2 SWAP1 POP JUMP JUMPDEST PUSH1 0x0 PUSH1 0x20 DUP3 ADD SWAP1 POP DUP2 DUP2 SUB PUSH1 0x0 DUP4 ADD MSTORE PUSH2 0x10D3 DUP2 PUSH2 0x1097 JUMP JUMPDEST SWAP1 POP SWAP2 SWAP1 POP JUMP JUMPDEST PUSH32 0x7265706169640000000000000000000000000000000000000000000000000000 PUSH1 0x0 DUP3 ADD MSTORE POP JUMP JUMPDEST PUSH1 0x0 PUSH2 0x1110 PUSH1 0x6 DUP4 PUSH2 0x105D JUMP JUMPDEST SWAP2 POP PUSH2 0x111B DUP3 PUSH2 0x10DA JUMP JUMPDEST PUSH1 0x20 DUP3 ADD SWAP1 POP SWAP2 SWAP1 POP JUMP JUMPDEST PUSH1 0x0 PUSH1 0x20 DUP3 ADD SWAP1 POP DUP2 DUP2 SUB PUSH1 0x0 DUP4 ADD MSTORE PUSH2 0x113F DUP2 PUSH2 0x1103 JUMP JUMPDEST SWAP1 POP SWAP2 SWAP1 POP JUMP JUMPDEST PUSH32 0x4E487B7100000000000000000000000000000000000000000000000000000000 PUSH1 0x0 MSTORE PUSH1 0x11 PUSH1 0x4 MSTORE PUSH1 0x24 PUSH1 0x0 REVERT JUMPDEST PUSH1 0x0 PUSH2 0x1180 DUP3 PUSH2 0xDF2 JUMP JUMPDEST SWAP2 POP PUSH2 0x118B DUP4 PUSH2 0xDF2 JUMP JUMPDEST SWAP3 POP DUP3 DUP3 MUL PUSH2 0x1199 DUP2 PUSH2 0xDF2 JUMP JUMPDEST SWAP2 POP DUP3 DUP3 DIV DUP5 EQ DUP4 ISZERO OR PUSH2 0x11B0 JUMPI PUSH2 0x11AF PUSH2 0x1146 JUMP JUMPDEST JUMPDEST POP SWAP3 SWAP2 POP POP JUMP JUMPDEST PUSH32 0x4E487B7100000000000000000000000000000000000000000000000000000000 PUSH1 0x0 MSTORE PUSH1 0x12 PUSH1 0x4 MSTORE PUSH1 0x24 PUSH1 0x0 REVERT JUMPDEST PUSH1 0x0 PUSH2 0x11F1 DUP3 PUSH2 0xDF2 JUMP JUMPDEST SWAP2 POP PUSH2 0x11FC DUP4 PUSH2 0xDF2 JUMP JUMPDEST SWAP3 POP DUP3 PUSH2 0x120C JUMPI PUSH2 0x120B PUSH2 0x11B7 JUMP JUMPDEST JUMPDEST DUP3 DUP3 DIV SWAP1 POP SWAP3 SWAP2 POP POP JUMP JUMPDEST PUSH1 0x0 PUSH2 0x1222 DUP3 PUSH2 0xDF2 JUMP JUMPDEST SWAP2 POP PUSH2 0x122D DUP4 PUSH2 0xDF2 JUMP JUMPDEST SWAP3 POP DUP3 DUP3 ADD SWAP1 POP DUP1 DUP3 GT ISZERO PUSH2 0x1245 JUMPI PUSH2 0x1244 PUSH2 0x1146 JUMP JUMPDEST JUMPDEST SWAP3 SWAP2 POP POP JUMP JUMPDEST PUSH1 0x0 PUSH1 0x60 DUP3 ADD SWAP1 POP PUSH2 0x1260 PUSH1 0x0 DUP4 ADD DUP7 PUSH2 0xFC4 JUMP JUMPDEST PUSH2 0x126D PUSH1 0x20 DUP4 ADD DUP6 PUSH2 0xFC4 JUMP JUMPDEST PUSH2 0x127A PUSH1 0x40 DUP4 ADD DUP5 PUSH2 0xF88 JUMP JUMPDEST SWAP5 SWAP4 POP POP POP POP JUMP JUMPDEST PUSH2 0x128B DUP2 PUSH2 0xFD3 JUMP JUMPDEST DUP2 EQ PUSH2 0x1296 JUMPI PUSH1 0x0 DUP1 REVERT JUMPDEST POP JUMP JUMPDEST PUSH1 0x0 DUP2 MLOAD SWAP1 POP PUSH2 0x12A8 DUP2 PUSH2 0x1282 JUMP JUMPDEST SWAP3 SWAP2 POP POP JUMP JUMPDEST PUSH1 0x0 PUSH1 0x20 DUP3 DUP5 SUB SLT ISZERO PUSH2 0x12C4 JUMPI PUSH2 0x12C3 PUSH2 0xDED JUMP JUMPDEST JUMPDEST PUSH1 0x0 PUSH2 0x12D2 DUP5 DUP3 DUP6 ADD PUSH2 0x1299 JUMP JUMPDEST SWAP2 POP POP SWAP3 SWAP2 POP POP JUMP JUMPDEST PUSH1 0x0 PUSH1 0x40 DUP3 ADD SWAP1 POP PUSH2 0x12F0 PUSH1 0x0 DUP4 ADD DUP6 PUSH2 0xFC4 JUMP JUMPDEST PUSH2 0x12FD PUSH1 0x20 DUP4 ADD DUP5 PUSH2 0xF88 JUMP JUMPDEST SWAP4 SWAP3 POP POP POP JUMP JUMPDEST PUSH32 0x6E6F742061636365707465640000000000000000000000000000000000000000 PUSH1 0x0 DUP3 ADD MSTORE POP JUMP JUMPDEST PUSH1 0x0 PUSH2 0x133A PUSH1 0xC DUP4 PUSH2 0x105D JUMP JUMPDEST SWAP2 POP PUSH2 0x1345 DUP3 PUSH2 0x1304 JUMP JUMPDEST PUSH1 0x20 DUP3 ADD SWAP1 POP SWAP2 SWAP1 POP JUMP JUMPDEST PUSH1 0x0 PUSH1 0x20 DUP3 ADD SWAP1 POP DUP2 DUP2 SUB PUSH1 0x0 DUP4 ADD MSTORE PUSH2 0x1369 DUP2 PUSH2 0x132D JUMP JUMPDEST SWAP1 POP SWAP2 SWAP1 POP JUMP JUMPDEST PUSH32 0x6E6F74206F766572647565000000000000000000000000000000000000000000 PUSH1 0x0 DUP3 ADD MSTORE POP JUMP JUMPDEST PUSH1 0x0 PUSH2 0x13A6 PUSH1 0xB DUP4 PUSH2 0x105D JUMP JUMPDEST SWAP2 POP PUSH2 0x13B1 DUP3 PUSH2 0x1370 JUMP JUMPDEST PUSH1 0x20 DUP3 ADD SWAP1 POP SWAP2 SWAP1 POP JUMP JUMPDEST PUSH1 0x0 PUSH1 0x20 DUP3 ADD SWAP1 POP DUP2 DUP2 SUB PUSH1 0x0 DUP4 ADD MSTORE PUSH2 0x13D5 DUP2 PUSH2 0x1399 JUMP JUMPDEST SWAP1 POP SWAP2 SWAP1 POP JUMP JUMPDEST PUSH1 0x0 PUSH1 0x60 DUP3 ADD SWAP1 POP PUSH2 0x13F1 PUSH1 0x0 DUP4 ADD DUP7 PUSH2 0xF88 JUMP JUMPDEST PUSH2 0x13FE PUSH1 0x20 DUP4 ADD DUP6 PUSH2 0xF88 JUMP JUMPDEST PUSH2 0x140B PUSH1 0x40 DUP4 ADD DUP5 PUSH2 0xF88 JUMP JUMPDEST SWAP5 SWAP4 POP POP POP POP JUMP JUMPDEST PUSH1 0x0 PUSH2 0x141E DUP3 PUSH2 0xDF2 JUMP JUMPDEST SWAP2 POP PUSH32 0xFFFFFFFFFFFFFFFFFFFFFFFFFFFFFFFFFFFFFFFFFFFFFFFFFFFFFFFFFFFFFFFF DUP3 SUB PUSH2 0x1450 JUMPI PUSH2 0x144F PUSH2 0x1146 JUMP JUMPDEST JUMPDEST PUSH1 0x1 DUP3 ADD SWAP1 POP SWAP2 SWAP1 POP JUMP JUMPDEST PUSH32 0x4E487B7100000000000000000000000000000000000000000000000000000000 PUSH1 0x0 MSTORE PUSH1 0x41 PUSH1 0x4 MSTORE PUSH1 0x24 PUSH1 0x0 REVERT JUMPDEST PUSH32 0x4E487B7100000000000000000000000000000000000000000000000000000000 PUSH1 0x0 MSTORE PUSH1 0x32 PUSH1 0x4 MSTORE PUSH1 0x24 PUSH1 0x0 REVERT JUMPDEST PUSH32 0x74616B656E000000000000000000000000000000000000000000000000000000 PUSH1 0x0 DUP3 ADD MSTORE POP JUMP JUMPDEST PUSH1 0x0 PUSH2 0x14EF PUSH1 0x5 DUP4 PUSH2 0x105D JUMP JUMPDEST SWAP2 POP PUSH2 0x14FA DUP3 PUSH2 0x14B9 JUMP JUMPDEST PUSH1 0x20 DUP3 ADD SWAP1 POP SWAP2 SWAP1 POP JUMP JUMPDEST PUSH1 0x0 PUSH1 0x20 DUP3 ADD SWAP1 POP DUP2 DUP2 SUB PUSH1 0x0 DUP4 ADD MSTORE PUSH2 0x151E DUP2 PUSH2 0x14E2 JUMP JUMPDEST SWAP1 POP SWAP2 SWAP1 POP JUMP INVALID LOG2 PUSH5 0x6970667358 0x22 SLT KECCAK256 0xF9 0x23 PUSH10 0x1407297EBA4C9D0F94E2 GAS PUSH25 0x4BE531604180FB6482C26B076F99BCB14D64736F6C63430008 EQ STOP CALLER "},"methodIdentifiers":{"USD()":"1bf6c21b","acceptLoan(uint256)":"adfbe22f","liquidate(uint256)":"415f1240","loans(uint256)":"e1ec3c68","nextLoanId()":"87c51459","openLoans()":"7dd17eff","postLoan(uint256,uint256,uint256)":"6ac00e43","repay(uint256)":"371fd8e6"}}}}}