{
  "_format": "hh-sol-artifact-1",
  "contractName": "Mercury",
  "sourceName": "contracts/Mercury.sol",
  "abi": [
    {
      "inputs": [
        {
          "internalType": "address",
          "name": "usdAddress",
          "type": "address"
        }
      ],
      "stateMutability": "nonpayable",
      "type": "constructor"
    },
    {
      "anonymous": false,
      "inputs": [
        {
          "indexed": true,
          "internalType": "uint256",
          "name": "id",
          "type": "uint256"
        },
        {
          "indexed": true,
          "internalType": "address",
          "name": "borrower",
          "type": "address"
        }
      ],
      "name": "Accepted",
      "type": "event"
    },
    {
      "anonymous": false,
      "inputs": [
        {
          "indexed": true,
          "internalType": "uint256",
          "name": "id",
          "type": "uint256"
        },
        {
          "indexed": true,
          "internalType": "address",
          "name": "lender",
          "type": "address"
        },
        {
          "indexed": false,
          "internalType": "uint256",
          "name": "amount",
          "type": "uint256"
        },
        {
          "indexed": false,
          "internalType": "uint256",
          "name": "interest",
          "type": "uint256"
        },
        {
          "indexed": false,
          "internalType": "uint256",
          "name": "duration",
          "type": "uint256"
        }
      ],
      "name": "Posted",
      "type": "event"
    },
    {
      "anonymous": false,
      "inputs": [
        {
          "indexed": true,
          "internalType": "uint256",
          "name": "id",
          "type": "uint256"
        }
      ],
      "name": "Repaid",
      "type": "event"
    },
    {
      "inputs": [],
      "name": "USD",
      "outputs": [
        {
          "internalType": "contract IERC20",
          "name": "",
          "type": "address"
        }
      ],
      "stateMutability": "view",
      "type": "function"
    },
    {
      "inputs": [
        {
          "internalType": "uint256",
          "name": "_id",
          "type": "uint256"
        }
      ],
      "name": "acceptLoan",
      "outputs": [],
      "stateMutability": "nonpayable",
      "type": "function"
    },
    {
      "inputs": [
        {
          "internalType": "uint256",
          "name": "_id",
          "type": "uint256"
        }
      ],
      "name": "liquidate",
      "outputs": [],
      "stateMutability": "nonpayable",
      "type": "function"
    },
    {
      "inputs": [
        {
          "internalType": "uint256",
          "name": "",
          "type": "uint256"
        }
      ],
      "name": "loans",
      "outputs": [
        {
          "internalType": "address",
          "name": "lender",
          "type": "address"
        },
        {
          "internalType": "address",
          "name": "borrower",
          "type": "address"
        },
        {
          "internalType": "uint256",
          "name": "amount",
          "type": "uint256"
        },
        {
          "internalType": "uint256",
          "name": "interest",
          "type": "uint256"
        },
        {
          "internalType": "uint256",
          "name": "duration",
          "type": "uint256"
        },
        {
          "internalType": "uint256",
          "name": "dueDate",
          "type": "uint256"
        },
        {
          "internalType": "bool",
          "name": "repaid",
          "type": "bool"
        }
      ],
      "stateMutability": "view",
      "type": "function"
    },
    {
      "inputs": [],
      "name": "nextLoanId",
      "outputs": [
        {
          "internalType": "uint256",
          "name": "",
          "type": "uint256"
        }
      ],
      "stateMutability": "view",
      "type": "function"
    },
    {
      "inputs": [],
      "name": "openLoans",
      "outputs": [
        {
          "internalType": "uint256[]",
          "name": "ids",
          "type": "uint256[]"
        }
      ],
      "stateMutability": "view",
      "type": "function"
    },
    {
      "inputs": [
        {
          "internalType": "uint256",
          "name": "_amount",
          "type": "uint256"
        },
        {
          "internalType": "uint256",
          "name": "_interest",
          "type": "uint256"
        },
        {
          "internalType": "uint256",
          "name": "_duration",
          "type": "uint256"
        }
      ],
      "name": "postLoan",
      "outputs": [],
      "stateMutability": "nonpayable",
      "type": "function"
    },
    {
      "inputs": [
        {
          "internalType": "uint256",
          "name": "_id",
          "type": "uint256"
        }
      ],
      "name": "repay",
      "outputs": [],
      "stateMutability": "nonpayable",
      "type": "function"
    }
  ],
  "bytecode": "0x60a060405260016000553480156200001657600080fd5b50604051620016ad380380620016ad83398181016040528101906200003c9190620000e1565b8073ffffffffffffffffffffffffffffffffffffffff1660808173ffffffffffffffffffffffffffffffffffffffff16815250505062000113565b600080fd5b600073ffffffffffffffffffffffffffffffffffffffff82169050919050565b6000620000a9826200007c565b9050919050565b620000bb816200009c565b8114620000c757600080fd5b50565b600081519050620000db81620000b0565b92915050565b600060208284031215620000fa57620000f962000077565b5b60006200010a84828501620000ca565b91505092915050565b60805161155b620001526000396000818161018f015281816102e201528181610383015281816105f4015281816106bf0152610bdb015261155b6000f3fe608060405234801561001057600080fd5b50600436106100885760003560e01c80637dd17eff1161005b5780637dd17eff146100ff57806387c514591461011d578063adfbe22f1461013b578063e1ec3c681461015757610088565b80631bf6c21b1461008d578063371fd8e6146100ab578063415f1240146100c75780636ac00e43146100e3575b600080fd5b61009561018d565b6040516100a29190610dd2565b60405180910390f35b6100c560048036038101906100c09190610e28565b6101b1565b005b6100e160048036038101906100dc9190610e28565b610493565b005b6100fd60048036038101906100f89190610e55565b6106bd565b005b610107610920565b6040516101149190610f66565b60405180910390f35b610125610ace565b6040516101329190610f97565b60405180910390f35b61015560048036038101906101509190610e28565b610ad4565b005b610171600480360381019061016c9190610e28565b610cc4565b6040516101849796959493929190610fee565b60405180910390f35b7f000000000000000000000000000000000000000000000000000000000000000081565b60006001600083815260200190815260200160002090508060010160009054906101000a900473ffffffffffffffffffffffffffffffffffffffff1673ffffffffffffffffffffffffffffffffffffffff163373ffffffffffffffffffffffffffffffffffffffff161461025a576040517f08c379a0000000000000000000000000000000000000000000000000000000008152600401610251906110ba565b60405180910390fd5b8060060160009054906101000a900460ff16156102ac576040517f08c379a00000000000000000000000000000000000000000000000000000000081526004016102a390611126565b60405180910390fd5b6000612710826003015483600201546102c59190611175565b6102cf91906111e6565b82600201546102de9190611217565b90507f000000000000000000000000000000000000000000000000000000000000000073ffffffffffffffffffffffffffffffffffffffff166323b872dd3330846040518463ffffffff1660e01b815260040161033d9392919061124b565b6020604051808303816000875af115801561035c573d6000803e3d6000fd5b505050506040513d601f19601f8201168201806040525081019061038091906112ae565b507f000000000000000000000000000000000000000000000000000000000000000073ffffffffffffffffffffffffffffffffffffffff1663a9059cbb8360000160009054906101000a900473ffffffffffffffffffffffffffffffffffffffff16836040518363ffffffff1660e01b81526004016104009291906112db565b6020604051808303816000875af115801561041f573d6000803e3d6000fd5b505050506040513d601f19601f8201168201806040525081019061044391906112ae565b5060018260060160006101000a81548160ff021916908315150217905550827f33a382daad6aace935340a474d09fec82af4bec7e2b69518d283231b03a65f2460405160405180910390a2505050565b6000600160008381526020019081526020016000209050600073ffffffffffffffffffffffffffffffffffffffff168160010160009054906101000a900473ffffffffffffffffffffffffffffffffffffffff1673ffffffffffffffffffffffffffffffffffffffff160361053d576040517f08c379a000000000000000000000000000000000000000000000000000000000815260040161053490611350565b60405180910390fd5b8060060160009054906101000a900460ff161561058f576040517f08c379a000000000000000000000000000000000000000000000000000000000815260040161058690611126565b60405180910390fd5b806005015442116105d5576040517f08c379a00000000000000000000000000000000000000000000000000000000081526004016105cc906113bc565b60405180910390fd5b60018160060160006101000a81548160ff0219169083151502179055507f000000000000000000000000000000000000000000000000000000000000000073ffffffffffffffffffffffffffffffffffffffff1663a9059cbb8260000160009054906101000a900473ffffffffffffffffffffffffffffffffffffffff1683600201546040518363ffffffff1660e01b81526004016106759291906112db565b6020604051808303816000875af1158015610694573d6000803e3d6000fd5b505050506040513d601f19601f820116820180604052508101906106b891906112ae565b505050565b7f000000000000000000000000000000000000000000000000000000000000000073ffffffffffffffffffffffffffffffffffffffff166323b872dd3330866040518463ffffffff1660e01b815260040161071a9392919061124b565b6020604051808303816000875af1158015610739573d6000803e3d6000fd5b505050506040513d601f19601f8201168201806040525081019061075d91906112ae565b506040518060e001604052803373ffffffffffffffffffffffffffffffffffffffff168152602001600073ffffffffffffffffffffffffffffffffffffffff1681526020018481526020018381526020018281526020016000815260200160001515815250600160008054815260200190815260200160002060008201518160000160006101000a81548173ffffffffffffffffffffffffffffffffffffffff021916908373ffffffffffffffffffffffffffffffffffffffff16021790555060208201518160010160006101000a81548173ffffffffffffffffffffffffffffffffffffffff021916908373ffffffffffffffffffffffffffffffffffffffff16021790555060408201518160020155606082015181600301556080820151816004015560a0820151816005015560c08201518160060160006101000a81548160ff0219169083151502179055509050503373ffffffffffffffffffffffffffffffffffffffff166000547f5e73c1ef5b7ae3554bd9957172a5aae24fd7180cfd0e7c5a8f869f93cc93e84f8585856040516108fc939291906113dc565b60405180910390a360008081548092919061091690611413565b9190505550505050565b6060600080600190505b6000548110156109c057600073ffffffffffffffffffffffffffffffffffffffff166001600083815260200190815260200160002060010160009054906101000a900473ffffffffffffffffffffffffffffffffffffffff1673ffffffffffffffffffffffffffffffffffffffff16036109ad5781806109a990611413565b9250505b80806109b890611413565b91505061092a565b508067ffffffffffffffff8111156109db576109da61145b565b5b604051908082528060200260200182016040528015610a095781602001602082028036833780820191505090505b509150600080600190505b600054811015610ac857600073ffffffffffffffffffffffffffffffffffffffff166001600083815260200190815260200160002060010160009054906101000a900473ffffffffffffffffffffffffffffffffffffffff1673ffffffffffffffffffffffffffffffffffffffff1603610ab55780848380610a9590611413565b945081518110610aa857610aa761148a565b5b6020026020010181815250505b8080610ac090611413565b915050610a14565b50505090565b60005481565b6000600160008381526020019081526020016000209050600073ffffffffffffffffffffffffffffffffffffffff168160010160009054906101000a900473ffffffffffffffffffffffffffffffffffffffff1673ffffffffffffffffffffffffffffffffffffffff1614610b7e576040517f08c379a0000000000000000000000000000000000000000000000000000000008152600401610b7590611505565b60405180910390fd5b338160010160006101000a81548173ffffffffffffffffffffffffffffffffffffffff021916908373ffffffffffffffffffffffffffffffffffffffff160217905550806004015442610bd19190611217565b81600501819055507f000000000000000000000000000000000000000000000000000000000000000073ffffffffffffffffffffffffffffffffffffffff1663a9059cbb3383600201546040518363ffffffff1660e01b8152600401610c389291906112db565b6020604051808303816000875af1158015610c57573d6000803e3d6000fd5b505050506040513d601f19601f82011682018060405250810190610c7b91906112ae565b503373ffffffffffffffffffffffffffffffffffffffff16827fec4eee35e0123e111ca1e78b349d631065c4e0d60bd85b917217cdf2fc749dd160405160405180910390a35050565b60016020528060005260406000206000915090508060000160009054906101000a900473ffffffffffffffffffffffffffffffffffffffff16908060010160009054906101000a900473ffffffffffffffffffffffffffffffffffffffff16908060020154908060030154908060040154908060050154908060060160009054906101000a900460ff16905087565b600073ffffffffffffffffffffffffffffffffffffffff82169050919050565b6000819050919050565b6000610d98610d93610d8e84610d53565b610d73565b610d53565b9050919050565b6000610daa82610d7d565b9050919050565b6000610dbc82610d9f565b9050919050565b610dcc81610db1565b82525050565b6000602082019050610de76000830184610dc3565b92915050565b600080fd5b6000819050919050565b610e0581610df2565b8114610e1057600080fd5b50565b600081359050610e2281610dfc565b92915050565b600060208284031215610e3e57610e3d610ded565b5b6000610e4c84828501610e13565b91505092915050565b600080600060608486031215610e6e57610e6d610ded565b5b6000610e7c86828701610e13565b9350506020610e8d86828701610e13565b9250506040610e9e86828701610e13565b9150509250925092565b600081519050919050565b600082825260208201905092915050565b6000819050602082019050919050565b610edd81610df2565b82525050565b6000610eef8383610ed4565b60208301905092915050565b6000602082019050919050565b6000610f1382610ea8565b610f1d8185610eb3565b9350610f2883610ec4565b8060005b83811015610f59578151610f408882610ee3565b9750610f4b83610efb565b925050600181019050610f2c565b5085935050505092915050565b60006020820190508181036000830152610f808184610f08565b905092915050565b610f9181610df2565b82525050565b6000602082019050610fac6000830184610f88565b92915050565b6000610fbd82610d53565b9050919050565b610fcd81610fb2565b82525050565b60008115159050919050565b610fe881610fd3565b82525050565b600060e082019050611003600083018a610fc4565b6110106020830189610fc4565b61101d6040830188610f88565b61102a6060830187610f88565b6110376080830186610f88565b61104460a0830185610f88565b61105160c0830184610fdf565b98975050505050505050565b600082825260208201905092915050565b7f6f6e6c7920626f72726f77657200000000000000000000000000000000000000600082015250565b60006110a4600d8361105d565b91506110af8261106e565b602082019050919050565b600060208201905081810360008301526110d381611097565b9050919050565b7f7265706169640000000000000000000000000000000000000000000000000000600082015250565b600061111060068361105d565b915061111b826110da565b602082019050919050565b6000602082019050818103600083015261113f81611103565b9050919050565b7f4e487b7100000000000000000000000000000000000000000000000000000000600052601160045260246000fd5b600061118082610df2565b915061118b83610df2565b925082820261119981610df2565b915082820484148315176111b0576111af611146565b5b5092915050565b7f4e487b7100000000000000000000000000000000000000000000000000000000600052601260045260246000fd5b60006111f182610df2565b91506111fc83610df2565b92508261120c5761120b6111b7565b5b828204905092915050565b600061122282610df2565b915061122d83610df2565b925082820190508082111561124557611244611146565b5b92915050565b60006060820190506112606000830186610fc4565b61126d6020830185610fc4565b61127a6040830184610f88565b949350505050565b61128b81610fd3565b811461129657600080fd5b50565b6000815190506112a881611282565b92915050565b6000602082840312156112c4576112c3610ded565b5b60006112d284828501611299565b91505092915050565b60006040820190506112f06000830185610fc4565b6112fd6020830184610f88565b9392505050565b7f6e6f742061636365707465640000000000000000000000000000000000000000600082015250565b600061133a600c8361105d565b915061134582611304565b602082019050919050565b600060208201905081810360008301526113698161132d565b9050919050565b7f6e6f74206f766572647565000000000000000000000000000000000000000000600082015250565b60006113a6600b8361105d565b91506113b182611370565b602082019050919050565b600060208201905081810360008301526113d581611399565b9050919050565b60006060820190506113f16000830186610f88565b6113fe6020830185610f88565b61140b6040830184610f88565b949350505050565b600061141e82610df2565b91507fffffffffffffffffffffffffffffffffffffffffffffffffffffffffffffffff82036114505761144f611146565b5b600182019050919050565b7f4e487b7100000000000000000000000000000000000000000000000000000000600052604160045260246000fd5b7f4e487b7100000000000000000000000000000000000000000000000000000000600052603260045260246000fd5b7f74616b656e000000000000000000000000000000000000000000000000000000600082015250565b60006114ef60058361105d565b91506114fa826114b9565b602082019050919050565b6000602082019050818103600083015261151e816114e2565b905091905056fea2646970667358221220f923691407297eba4c9d0f94e25a784be531604180fb6482c26b076f99bcb14d64736f6c63430008140033",
  "linkReferences": {},
  "deployedLinkReferences": {}
}